{
  "contractName": "BettingGame",
  "abi": [
    {
      "inputs": [],
      "stateMutability": "nonpayable",
      "type": "constructor"
    },
    {
      "anonymous": false,
      "inputs": [
        {
          "indexed": true,
          "internalType": "address",
          "name": "sender",
          "type": "address"
        },
        {
          "indexed": false,
          "internalType": "uint256",
          "name": "amount",
          "type": "uint256"
        }
      ],
      "name": "Received",
      "type": "event"
    },
    {
      "anonymous": false,
      "inputs": [
        {
          "indexed": false,
          "internalType": "uint256",
          "name": "id",
          "type": "uint256"
        },
        {
          "indexed": false,
          "internalType": "uint256",
          "name": "bet",
          "type": "uint256"
        },
        {
          "indexed": false,
          "internalType": "uint256",
          "name": "amount",
          "type": "uint256"
        },
        {
          "indexed": false,
          "internalType": "address",
          "name": "player",
          "type": "address"
        },
        {
          "indexed": false,
          "internalType": "uint256",
          "name": "winAmount",
          "type": "uint256"
        },
        {
          "indexed": false,
          "internalType": "uint256",
          "name": "randomResult",
          "type": "uint256"
        },
        {
          "indexed": false,
          "internalType": "uint256",
          "name": "time",
          "type": "uint256"
        }
      ],
      "name": "Result",
      "type": "event"
    },
    {
      "anonymous": false,
      "inputs": [
        {
          "indexed": false,
          "internalType": "address",
          "name": "admin",
          "type": "address"
        },
        {
          "indexed": false,
          "internalType": "uint256",
          "name": "amount",
          "type": "uint256"
        }
      ],
      "name": "Withdraw",
      "type": "event"
    },
    {
      "inputs": [],
      "name": "admin",
      "outputs": [
        {
          "internalType": "address payable",
          "name": "",
          "type": "address"
        }
      ],
      "stateMutability": "view",
      "type": "function",
      "constant": true
    },
    {
      "inputs": [],
      "name": "gameId",
      "outputs": [
        {
          "internalType": "uint256",
          "name": "",
          "type": "uint256"
        }
      ],
      "stateMutability": "view",
      "type": "function",
      "constant": true
    },
    {
      "inputs": [
        {
          "internalType": "uint256",
          "name": "",
          "type": "uint256"
        }
      ],
      "name": "games",
      "outputs": [
        {
          "internalType": "uint256",
          "name": "id",
          "type": "uint256"
        },
        {
          "internalType": "uint256",
          "name": "bet",
          "type": "uint256"
        },
        {
          "internalType": "uint256",
          "name": "amount",
          "type": "uint256"
        },
        {
          "internalType": "address payable",
          "name": "player",
          "type": "address"
        }
      ],
      "stateMutability": "view",
      "type": "function",
      "constant": true
    },
    {
      "inputs": [],
      "name": "lastGameId",
      "outputs": [
        {
          "internalType": "uint256",
          "name": "",
          "type": "uint256"
        }
      ],
      "stateMutability": "view",
      "type": "function",
      "constant": true
    },
    {
      "inputs": [],
      "name": "randomResult",
      "outputs": [
        {
          "internalType": "uint256",
          "name": "",
          "type": "uint256"
        }
      ],
      "stateMutability": "view",
      "type": "function",
      "constant": true
    },
    {
      "inputs": [
        {
          "internalType": "bytes32",
          "name": "requestId",
          "type": "bytes32"
        },
        {
          "internalType": "uint256",
          "name": "randomness",
          "type": "uint256"
        }
      ],
      "name": "rawFulfillRandomness",
      "outputs": [],
      "stateMutability": "nonpayable",
      "type": "function"
    },
    {
      "stateMutability": "payable",
      "type": "receive",
      "payable": true
    },
    {
      "inputs": [],
      "name": "ethInUsd",
      "outputs": [
        {
          "internalType": "int256",
          "name": "",
          "type": "int256"
        }
      ],
      "stateMutability": "view",
      "type": "function",
      "constant": true
    },
    {
      "inputs": [],
      "name": "weiInUsd",
      "outputs": [
        {
          "internalType": "uint256",
          "name": "",
          "type": "uint256"
        }
      ],
      "stateMutability": "view",
      "type": "function",
      "constant": true
    },
    {
      "inputs": [
        {
          "internalType": "uint256",
          "name": "bet",
          "type": "uint256"
        }
      ],
      "name": "game",
      "outputs": [
        {
          "internalType": "bool",
          "name": "",
          "type": "bool"
        }
      ],
      "stateMutability": "payable",
      "type": "function",
      "payable": true
    },
    {
      "inputs": [
        {
          "internalType": "uint256",
          "name": "random",
          "type": "uint256"
        }
      ],
      "name": "verdict",
      "outputs": [],
      "stateMutability": "payable",
      "type": "function",
      "payable": true
    },
    {
      "inputs": [
        {
          "internalType": "uint256",
          "name": "amount",
          "type": "uint256"
        }
      ],
      "name": "withdrawLink",
      "outputs": [],
      "stateMutability": "nonpayable",
      "type": "function"
    },
    {
      "inputs": [
        {
          "internalType": "uint256",
          "name": "amount",
          "type": "uint256"
        }
      ],
      "name": "withdrawEther",
      "outputs": [],
      "stateMutability": "payable",
      "type": "function",
      "payable": true
    }
  ],
  "bytecode": "0x60c060405234801561001057600080fd5b5073dd3782915140c8f3b190b5d67eac6dc5760c46e973a36085f69e2889c224210f603d836748e7dc00888173ffffffffffffffffffffffffffffffffffffffff1660a08173ffffffffffffffffffffffffffffffffffffffff16815250508073ffffffffffffffffffffffffffffffffffffffff1660808173ffffffffffffffffffffffffffffffffffffffff1681525050505067016345785d8a000060028190555033600660006101000a81548173ffffffffffffffffffffffffffffffffffffffff021916908373ffffffffffffffffffffffffffffffffffffffff160217905550739326bfa02add2366b30bacb125260af641031331600160006101000a81548173ffffffffffffffffffffffffffffffffffffffff021916908373ffffffffffffffffffffffffffffffffffffffff16021790555060805160a051611d4b610184600039600081816106990152610e950152600081816105b901528181610d480152610e590152611d4b6000f3fe6080604052600436106100ab5760003560e01c806394985ddd1161006457806394985ddd1461020b578063a9d1e30a14610234578063cddbe7291461025f578063d3dc1fdf1461028f578063d7c81b55146102ab578063f851a440146102d657610100565b8063117a5b9014610105578063238618e7146101455780633bed33ce146101705780633ee9d6481461018c57806342619f66146101b75780637a8042bd146101e257610100565b36610100573373ffffffffffffffffffffffffffffffffffffffff167f88a5966d370b9919b20f3e2c13ff65706f196a4e32cc2c12bf57088f88525874346040516100f6919061102d565b60405180910390a2005b600080fd5b34801561011157600080fd5b5061012c60048036038101906101279190611079565b610301565b60405161013c94939291906110e7565b60405180910390f35b34801561015157600080fd5b5061015a610351565b604051610167919061102d565b60405180910390f35b61018a60048036038101906101859190611079565b610381565b005b34801561019857600080fd5b506101a161051b565b6040516101ae919061102d565b60405180910390f35b3480156101c357600080fd5b506101cc610521565b6040516101d9919061102d565b60405180910390f35b3480156101ee57600080fd5b5061020960048036038101906102049190611079565b610527565b005b34801561021757600080fd5b50610232600480360381019061022d9190611162565b610697565b005b34801561024057600080fd5b50610249610733565b60405161025691906111bb565b60405180910390f35b61027960048036038101906102749190611079565b6107e2565b60405161028691906111f1565b60405180910390f35b6102a960048036038101906102a49190611079565b6109a3565b005b3480156102b757600080fd5b506102c0610cf3565b6040516102cd919061102d565b60405180910390f35b3480156102e257600080fd5b506102eb610cf9565b6040516102f8919061120c565b60405180910390f35b60076020528060005260406000206000915090508060000154908060010154908060020154908060030160009054906101000a900473ffffffffffffffffffffffffffffffffffffffff16905084565b60008061035c610733565b90506000816a52b7d2dcc80cd2e40000006103779190611285565b9050809250505090565b600660009054906101000a900473ffffffffffffffffffffffffffffffffffffffff1673ffffffffffffffffffffffffffffffffffffffff163373ffffffffffffffffffffffffffffffffffffffff1614610411576040517f08c379a00000000000000000000000000000000000000000000000000000000081526004016104089061134c565b60405180910390fd5b80471015610454576040517f08c379a000000000000000000000000000000000000000000000000000000000815260040161044b906113de565b60405180910390fd5b600660009054906101000a900473ffffffffffffffffffffffffffffffffffffffff1673ffffffffffffffffffffffffffffffffffffffff166108fc829081150290604051600060405180830381858888f193505050501580156104bc573d6000803e3d6000fd5b507f884edad9ce6fa2440d8a54cc123490eb96d2768479d49ff9c7366125a9424364600660009054906101000a900473ffffffffffffffffffffffffffffffffffffffff168260405161051092919061145d565b60405180910390a150565b60055481565b60035481565b600660009054906101000a900473ffffffffffffffffffffffffffffffffffffffff1673ffffffffffffffffffffffffffffffffffffffff163373ffffffffffffffffffffffffffffffffffffffff16146105b7576040517f08c379a00000000000000000000000000000000000000000000000000000000081526004016105ae9061134c565b60405180910390fd5b7f000000000000000000000000000000000000000000000000000000000000000073ffffffffffffffffffffffffffffffffffffffff1663a9059cbb33836040518363ffffffff1660e01b81526004016106129291906114a7565b6020604051808303816000875af1158015610631573d6000803e3d6000fd5b505050506040513d601f19601f8201168201806040525081019061065591906114fc565b610694576040517f08c379a000000000000000000000000000000000000000000000000000000000815260040161068b90611575565b60405180910390fd5b50565b7f000000000000000000000000000000000000000000000000000000000000000073ffffffffffffffffffffffffffffffffffffffff163373ffffffffffffffffffffffffffffffffffffffff1614610725576040517f08c379a000000000000000000000000000000000000000000000000000000000815260040161071c906115e1565b60405180910390fd5b61072f8282610d1f565b5050565b600080600080600080600160009054906101000a900473ffffffffffffffffffffffffffffffffffffffff1673ffffffffffffffffffffffffffffffffffffffff1663feaf968c6040518163ffffffff1660e01b815260040160a060405180830381865afa1580156107a9573d6000803e3d6000fd5b505050506040513d601f19601f820116820180604052508101906107cd9190611684565b94509450945094509450839550505050505090565b6000806107ed610351565b905080341015610832576040517f08c379a00000000000000000000000000000000000000000000000000000000081526004016108299061174b565b60405180910390fd5b6002831115610876576040517f08c379a000000000000000000000000000000000000000000000000000000000815260040161086d906117b7565b60405180910390fd5b3460024761088491906117d7565b10156108c5576040517f08c379a00000000000000000000000000000000000000000000000000000000081526004016108bc90611854565b60405180910390fd5b604051806080016040528060045481526020018481526020013481526020013373ffffffffffffffffffffffffffffffffffffffff1681525060076000600454815260200190815260200160002060008201518160000155602082015181600101556040820151816002015560608201518160030160006101000a81548173ffffffffffffffffffffffffffffffffffffffff021916908373ffffffffffffffffffffffffffffffffffffffff160217905550905050600160045461098a9190611874565b600481905550610998610d41565b506001915050919050565b73dd3782915140c8f3b190b5d67eac6dc5760c46e973ffffffffffffffffffffffffffffffffffffffff163373ffffffffffffffffffffffffffffffffffffffff1614610a25576040517f08c379a0000000000000000000000000000000000000000000000000000000008152600401610a1c90611916565b60405180910390fd5b600060055490505b600454811015610ce65760008083148015610a5e575060016007600084815260200190815260200160002060010154145b80610a8b5750600183148015610a8a575060026007600084815260200190815260200160002060010154145b5b80610ab85750600283148015610ab7575060006007600084815260200190815260200160002060010154145b5b15610b645760026007600084815260200190815260200160002060020154610ae09190611936565b90506007600083815260200190815260200160002060030160009054906101000a900473ffffffffffffffffffffffffffffffffffffffff1673ffffffffffffffffffffffffffffffffffffffff166108fc829081150290604051600060405180830381858888f19350505050158015610b5e573d6000803e3d6000fd5b50610c17565b6007600083815260200190815260200160002060010154831415610c16576007600083815260200190815260200160002060030160009054906101000a900473ffffffffffffffffffffffffffffffffffffffff1673ffffffffffffffffffffffffffffffffffffffff166108fc60076000858152602001908152602001600020600201549081150290604051600060405180830381858888f19350505050158015610c14573d6000803e3d6000fd5b505b5b7f21358134633323ccf1de3942fefdcdaad27107bf148d87cb6e51ff9fc46ae7af6007600084815260200190815260200160002060000154600760008581526020019081526020016000206001015460076000868152602001908152602001600020600201546007600087815260200190815260200160002060030160009054906101000a900473ffffffffffffffffffffffffffffffffffffffff16858842604051610cca9796959493929190611990565b60405180910390a1508080610cde906119ff565b915050610a2d565b5060045460058190555050565b60045481565b600660009054906101000a900473ffffffffffffffffffffffffffffffffffffffff1681565b600381610d2c9190611a48565b600381905550610d3d6003546109a3565b5050565b60006002547f000000000000000000000000000000000000000000000000000000000000000073ffffffffffffffffffffffffffffffffffffffff166370a08231306040518263ffffffff1660e01b8152600401610d9f9190611a79565b602060405180830381865afa158015610dbc573d6000803e3d6000fd5b505050506040513d601f19601f82011682018060405250810190610de09190611a94565b1015610e21576040517f08c379a0000000000000000000000000000000000000000000000000000000008152600401610e1890611b33565b60405180910390fd5b610e507f6c3699283bda56ad74f6b855546325b68d482e983852a7a82979cc4807b641f460001b600254610e55565b905090565b60007f000000000000000000000000000000000000000000000000000000000000000073ffffffffffffffffffffffffffffffffffffffff16634000aea07f000000000000000000000000000000000000000000000000000000000000000084866000604051602001610ec9929190611b62565b6040516020818303038152906040526040518463ffffffff1660e01b8152600401610ef693929190611c24565b6020604051808303816000875af1158015610f15573d6000803e3d6000fd5b505050506040513d601f19601f82011682018060405250810190610f3991906114fc565b506000610f5b8460003060008089815260200190815260200160002054610fa5565b9050600160008086815260200190815260200160002054610f7c9190611874565b60008086815260200190815260200160002081905550610f9c8482610fe1565b91505092915050565b600084848484604051602001610fbe9493929190611c62565b6040516020818303038152906040528051906020012060001c9050949350505050565b60008282604051602001610ff6929190611ce9565b60405160208183030381529060405280519060200120905092915050565b6000819050919050565b61102781611014565b82525050565b6000602082019050611042600083018461101e565b92915050565b600080fd5b61105681611014565b811461106157600080fd5b50565b6000813590506110738161104d565b92915050565b60006020828403121561108f5761108e611048565b5b600061109d84828501611064565b91505092915050565b600073ffffffffffffffffffffffffffffffffffffffff82169050919050565b60006110d1826110a6565b9050919050565b6110e1816110c6565b82525050565b60006080820190506110fc600083018761101e565b611109602083018661101e565b611116604083018561101e565b61112360608301846110d8565b95945050505050565b6000819050919050565b61113f8161112c565b811461114a57600080fd5b50565b60008135905061115c81611136565b92915050565b6000806040838503121561117957611178611048565b5b60006111878582860161114d565b925050602061119885828601611064565b9150509250929050565b6000819050919050565b6111b5816111a2565b82525050565b60006020820190506111d060008301846111ac565b92915050565b60008115159050919050565b6111eb816111d6565b82525050565b600060208201905061120660008301846111e2565b92915050565b600060208201905061122160008301846110d8565b92915050565b7f4e487b7100000000000000000000000000000000000000000000000000000000600052601260045260246000fd5b7f4e487b7100000000000000000000000000000000000000000000000000000000600052601160045260246000fd5b6000611290826111a2565b915061129b836111a2565b9250826112ab576112aa611227565b5b600160000383147f8000000000000000000000000000000000000000000000000000000000000000831416156112e4576112e3611256565b5b828205905092915050565b600082825260208201905092915050565b7f63616c6c6572206973206e6f74207468652061646d696e000000000000000000600082015250565b60006113366017836112ef565b915061134182611300565b602082019050919050565b6000602082019050818103600083015261136581611329565b9050919050565b7f4572726f722c20636f6e74726163742068617320696e737566666963656e742060008201527f62616c616e636500000000000000000000000000000000000000000000000000602082015250565b60006113c86027836112ef565b91506113d38261136c565b604082019050919050565b600060208201905081810360008301526113f7816113bb565b9050919050565b6000819050919050565b600061142361141e611419846110a6565b6113fe565b6110a6565b9050919050565b600061143582611408565b9050919050565b60006114478261142a565b9050919050565b6114578161143c565b82525050565b6000604082019050611472600083018561144e565b61147f602083018461101e565b9392505050565b6000611491826110a6565b9050919050565b6114a181611486565b82525050565b60006040820190506114bc6000830185611498565b6114c9602083018461101e565b9392505050565b6114d9816111d6565b81146114e457600080fd5b50565b6000815190506114f6816114d0565b92915050565b60006020828403121561151257611511611048565b5b6000611520848285016114e7565b91505092915050565b7f4572726f722c20756e61626c6520746f207472616e7366657200000000000000600082015250565b600061155f6019836112ef565b915061156a82611529565b602082019050919050565b6000602082019050818103600083015261158e81611552565b9050919050565b7f4f6e6c7920565246436f6f7264696e61746f722063616e2066756c66696c6c00600082015250565b60006115cb601f836112ef565b91506115d682611595565b602082019050919050565b600060208201905081810360008301526115fa816115be565b9050919050565b600069ffffffffffffffffffff82169050919050565b61162081611601565b811461162b57600080fd5b50565b60008151905061163d81611617565b92915050565b61164c816111a2565b811461165757600080fd5b50565b60008151905061166981611643565b92915050565b60008151905061167e8161104d565b92915050565b600080600080600060a086880312156116a05761169f611048565b5b60006116ae8882890161162e565b95505060206116bf8882890161165a565b94505060406116d08882890161166f565b93505060606116e18882890161166f565b92505060806116f28882890161162e565b9150509295509295909350565b7f4572726f722c206d73672e76616c7565206d757374206265203e3d2024310000600082015250565b6000611735601e836112ef565b9150611740826116ff565b602082019050919050565b6000602082019050818103600083015261176481611728565b9050919050565b7f4572726f722c20616363657074206f6e6c7920302c2031206f72203200000000600082015250565b60006117a1601c836112ef565b91506117ac8261176b565b602082019050919050565b600060208201905081810360008301526117d081611794565b9050919050565b60006117e282611014565b91506117ed83611014565b9250826117fd576117fc611227565b5b828204905092915050565b7f4572726f722c20696e737566666963656e74207661756c742062616c616e6365600082015250565b600061183e6020836112ef565b915061184982611808565b602082019050919050565b6000602082019050818103600083015261186d81611831565b9050919050565b600061187f82611014565b915061188a83611014565b9250827fffffffffffffffffffffffffffffffffffffffffffffffffffffffffffffffff038211156118bf576118be611256565b5b828201905092915050565b7f6f6e6c7920564652432063616e2063616c6c20746869732066756e6374696f6e600082015250565b60006119006020836112ef565b915061190b826118ca565b602082019050919050565b6000602082019050818103600083015261192f816118f3565b9050919050565b600061194182611014565b915061194c83611014565b9250817fffffffffffffffffffffffffffffffffffffffffffffffffffffffffffffffff048311821515161561198557611984611256565b5b828202905092915050565b600060e0820190506119a5600083018a61101e565b6119b2602083018961101e565b6119bf604083018861101e565b6119cc606083018761144e565b6119d9608083018661101e565b6119e660a083018561101e565b6119f360c083018461101e565b98975050505050505050565b6000611a0a82611014565b91507fffffffffffffffffffffffffffffffffffffffffffffffffffffffffffffffff821415611a3d57611a3c611256565b5b600182019050919050565b6000611a5382611014565b9150611a5e83611014565b925082611a6e57611a6d611227565b5b828206905092915050565b6000602082019050611a8e6000830184611498565b92915050565b600060208284031215611aaa57611aa9611048565b5b6000611ab88482850161166f565b91505092915050565b7f4e6f7420656e6f756768204c494e4b202d2066696c6c20636f6e74726163742060008201527f7769746820666175636574000000000000000000000000000000000000000000602082015250565b6000611b1d602b836112ef565b9150611b2882611ac1565b604082019050919050565b60006020820190508181036000830152611b4c81611b10565b9050919050565b611b5c8161112c565b82525050565b6000604082019050611b776000830185611b53565b611b84602083018461101e565b9392505050565b600081519050919050565b600082825260208201905092915050565b60005b83811015611bc5578082015181840152602081019050611baa565b83811115611bd4576000848401525b50505050565b6000601f19601f8301169050919050565b6000611bf682611b8b565b611c008185611b96565b9350611c10818560208601611ba7565b611c1981611bda565b840191505092915050565b6000606082019050611c396000830186611498565b611c46602083018561101e565b8181036040830152611c588184611beb565b9050949350505050565b6000608082019050611c776000830187611b53565b611c84602083018661101e565b611c916040830185611498565b611c9e606083018461101e565b95945050505050565b6000819050919050565b611cc2611cbd8261112c565b611ca7565b82525050565b6000819050919050565b611ce3611cde82611014565b611cc8565b82525050565b6000611cf58285611cb1565b602082019150611d058284611cd2565b602082019150819050939250505056fea26469706673582212208e25572bdf5ddae7619c55aab41a8a44bb86f864b12585fc1027d1a1f8942b6c64736f6c634300080b0033",
  "immutableReferences": {
    "73": [
      {
        "length": 32,
        "start": 1465
      },
      {
        "length": 32,
        "start": 3400
      },
      {
        "length": 32,
        "start": 3673
      }
    ],
    "75": [
      {
        "length": 32,
        "start": 1689
      },
      {
        "length": 32,
        "start": 3733
      }
    ]
  },
  "source": "// SPDX-License-Identifier: MIT\r\npragma solidity ^0.8.7;\r\n\r\nimport \"@chainlink/contracts/src/v0.8/VRFConsumerBase.sol\";\r\nimport \"@chainlink/contracts/src/v0.8/interfaces/AggregatorV3Interface.sol\";\r\n\r\ncontract BettingGame is VRFConsumerBase {\r\n    /** !UPDATE\r\n     *\r\n     * assign an aggregator contract to the variable.\r\n     */\r\n    AggregatorV3Interface internal ethUsd;\r\n\r\n    uint256 internal fee;\r\n    uint256 public randomResult;\r\n\r\n    //Network: Koven\r\n    address constant VFRC_address = 0xdD3782915140c8f3b190B5D67eAc6dc5760C46E9; // VRF Coordinator\r\n    address constant LINK_address = 0xa36085F69e2889c224210F603D836748e7dC0088; // LINK token\r\n\r\n    //keyHash - one of the component from which will be generated final random value by Chainlink VFRC.\r\n    bytes32 internal constant keyHash =\r\n        0x6c3699283bda56ad74f6b855546325b68d482e983852a7a82979cc4807b641f4;\r\n\r\n    uint256 public gameId;\r\n    uint256 public lastGameId;\r\n    address payable public admin;\r\n    mapping(uint256 => Game) public games;\r\n\r\n    struct Game {\r\n        uint256 id;\r\n        uint256 bet;\r\n        // uint256 seed;\r\n        uint256 amount;\r\n        address payable player;\r\n    }\r\n\r\n    modifier onlyAdmin() {\r\n        require(msg.sender == admin, \"caller is not the admin\");\r\n        _;\r\n    }\r\n\r\n    modifier onlyVFRC() {\r\n        require(msg.sender == VFRC_address, \"only VFRC can call this function\");\r\n        _;\r\n    }\r\n\r\n    event Withdraw(address admin, uint256 amount);\r\n    event Received(address indexed sender, uint256 amount);\r\n    event Result(\r\n        uint256 id,\r\n        uint256 bet,\r\n        uint256 amount,\r\n        address player,\r\n        uint256 winAmount,\r\n        uint256 randomResult,\r\n        uint256 time\r\n    );\r\n\r\n    /**\r\n     * Constructor inherits VRFConsumerBase.\r\n     */\r\n    constructor() public VRFConsumerBase(VFRC_address, LINK_address) {\r\n        fee = 0.1 * 10**18; // 0.1 LINK\r\n        admin = payable(msg.sender);\r\n\r\n        ethUsd = AggregatorV3Interface(\r\n            0x9326BFA02ADD2366b30bacB125260Af641031331\r\n        );\r\n    }\r\n\r\n    /* Allows this contract to receive payments */\r\n    receive() external payable {\r\n        emit Received(msg.sender, msg.value);\r\n    }\r\n\r\n    /**\r\n     *\r\n     * Returns latest ETH/USD price from Chainlink oracles.\r\n     */\r\n    function ethInUsd() public view returns (int256) {\r\n        (\r\n            uint80 roundId,\r\n            int256 price,\r\n            uint256 startedAt,\r\n            uint256 timeStamp,\r\n            uint80 answeredInRound\r\n        ) = ethUsd.latestRoundData();\r\n\r\n        return price;\r\n    }\r\n\r\n    /**\r\n     *\r\n     * ethUsd - latest price from Chainlink oracles (ETH in USD * 10**8).\r\n     * weiUsd - USD in Wei, received by dividing:\r\n     *          ETH in Wei (converted to compatibility with etUsd (10**18 * 10**8)),\r\n     *          by ethUsd.\r\n     */\r\n    function weiInUsd() public view returns (uint256) {\r\n        int256 ethUsd = ethInUsd();\r\n        int256 weiUsd = 10**26 / ethUsd;\r\n\r\n        return uint256(weiUsd);\r\n    }\r\n\r\n    /**\r\n     * Taking bets function.\r\n     * By winning, user 2x his betAmount.\r\n     * By losing, user lost all the betAmount.\r\n     * By drawing, user can take their bet back.\r\n     */\r\n    function game(uint256 bet) public payable returns (bool) {\r\n        /** !UPDATE\r\n         *\r\n         * Checking if msg.value is higher or equal than $1.\r\n         */\r\n        uint256 weiUsd = weiInUsd();\r\n        require(msg.value >= weiUsd, \"Error, msg.value must be >= $1\");\r\n\r\n        //bet 0 = rock, 1 = paper, 2 = scissors\r\n        require(bet <= 2, \"Error, accept only 0, 1 or 2\");\r\n\r\n        //vault balance must be at least equal to msg.value\r\n        require(\r\n            address(this).balance / 2 >= msg.value,\r\n            \"Error, insufficent vault balance\"\r\n        );\r\n\r\n        //each bet has unique id\r\n        games[gameId] = Game(gameId, bet, msg.value, payable(msg.sender));\r\n\r\n        //increase gameId for the next bet\r\n        gameId = gameId + 1;\r\n\r\n        //seed is auto-generated by DApp\r\n        getRandomNumber();\r\n\r\n        return true;\r\n    }\r\n\r\n    /**\r\n     * Request for randomness.\r\n     */\r\n    function getRandomNumber() internal returns (bytes32 requestId) {\r\n        require(\r\n            LINK.balanceOf(address(this)) >= fee,\r\n            \"Not enough LINK - fill contract with faucet\"\r\n        );\r\n        return requestRandomness(keyHash, fee);\r\n    }\r\n\r\n    /**\r\n     * Callback function used by VRF Coordinator.\r\n     */\r\n    function fulfillRandomness(bytes32 requestId, uint256 randomness)\r\n        internal\r\n        override\r\n    {\r\n        randomResult = randomness % 3;\r\n\r\n        //send final random value to the verdict();\r\n        verdict(randomResult);\r\n    }\r\n\r\n    /**\r\n     * Send rewards to the winners.\r\n     */\r\n    function verdict(uint256 random) public payable onlyVFRC {\r\n        //check bets from latest betting round, one by one\r\n        for (uint256 i = lastGameId; i < gameId; i++) {\r\n            //reset winAmount for current user\r\n            uint256 winAmount = 0;\r\n            // 0 = rock, 1 = paper, 2 = scissors\r\n            if (\r\n                (random == 0 && games[i].bet == 1) ||\r\n                (random == 1 && games[i].bet == 2) ||\r\n                (random == 2 && games[i].bet == 0)\r\n            ) {\r\n                winAmount = games[i].amount * 2;\r\n                games[i].player.transfer(winAmount);\r\n            } else if (random == games[i].bet) {\r\n                games[i].player.transfer(games[i].amount);\r\n            }\r\n            emit Result(\r\n                games[i].id,\r\n                games[i].bet,\r\n                games[i].amount,\r\n                games[i].player,\r\n                winAmount,\r\n                random,\r\n                block.timestamp\r\n            );\r\n        }\r\n        //save current gameId to lastGameId for the next betting round\r\n        lastGameId = gameId;\r\n    }\r\n\r\n    /**\r\n     * Withdraw LINK from this contract (admin option).\r\n     */\r\n    function withdrawLink(uint256 amount) external onlyAdmin {\r\n        require(LINK.transfer(msg.sender, amount), \"Error, unable to transfer\");\r\n    }\r\n\r\n    /**\r\n     * Withdraw Ether from this contract (admin option).\r\n     */\r\n    function withdrawEther(uint256 amount) external payable onlyAdmin {\r\n        require(\r\n            address(this).balance >= amount,\r\n            \"Error, contract has insufficent balance\"\r\n        );\r\n        admin.transfer(amount);\r\n\r\n        emit Withdraw(admin, amount);\r\n    }\r\n}\r\n",
  "sourcePath": "/Users/fungp/chainlink_betting_game/smart-contracts/contracts/BettingGame.sol",
  "compiler": {
    "name": "solc",
    "version": "0.8.11+commit.d7f03943.Emscripten.clang"
  },
  "schemaVersion": "3.4.4",
  "updatedAt": "2022-01-31T18:04:12.353Z",
  "networkType": "ethereum",
  "devdoc": {
    "kind": "dev",
    "methods": {},
    "version": 1
  },
  "userdoc": {
    "kind": "user",
    "methods": {
      "constructor": {
        "notice": "Constructor inherits VRFConsumerBase."
      },
      "ethInUsd()": {
        "notice": "Returns latest ETH/USD price from Chainlink oracles."
      },
      "game(uint256)": {
        "notice": "Taking bets function. By winning, user 2x his betAmount. By losing, user lost all the betAmount. By drawing, user can take their bet back."
      },
      "verdict(uint256)": {
        "notice": "Send rewards to the winners."
      },
      "weiInUsd()": {
        "notice": "ethUsd - latest price from Chainlink oracles (ETH in USD * 10**8). weiUsd - USD in Wei, received by dividing:          ETH in Wei (converted to compatibility with etUsd (10**18 * 10**8)),          by ethUsd."
      },
      "withdrawEther(uint256)": {
        "notice": "Withdraw Ether from this contract (admin option)."
      },
      "withdrawLink(uint256)": {
        "notice": "Withdraw LINK from this contract (admin option)."
      }
    },
    "version": 1
  }
}